{
    "_format": "hh-sol-artifact-1",
    "contractName": "BuyMeACoffee",
    "sourceName": "contracts/BuyMeACoffee.sol",
    "abi": [
        {
            "inputs": [],
            "stateMutability": "nonpayable",
            "type": "constructor"
        },
        {
            "anonymous": false,
            "inputs": [
                {
                    "components": [
                        {
                            "internalType": "string",
                            "name": "name",
                            "type": "string"
                        },
                        {
                            "internalType": "string",
                            "name": "message",
                            "type": "string"
                        },
                        {
                            "internalType": "uint256",
                            "name": "timestamp",
                            "type": "uint256"
                        },
                        {
                            "internalType": "address",
                            "name": "funderAddress",
                            "type": "address"
                        }
                    ],
                    "indexed": false,
                    "internalType": "struct BuyMeACoffee.FunderInfo",
                    "name": "test",
                    "type": "tuple"
                }
            ],
            "name": "FunderEvent",
            "type": "event"
        },
        {
            "inputs": [
                {
                    "internalType": "string",
                    "name": "_name",
                    "type": "string"
                },
                {
                    "internalType": "string",
                    "name": "_message",
                    "type": "string"
                }
            ],
            "name": "buyCoffee",
            "outputs": [],
            "stateMutability": "payable",
            "type": "function"
        },
        {
            "inputs": [],
            "name": "getFunders",
            "outputs": [
                {
                    "components": [
                        {
                            "internalType": "string",
                            "name": "name",
                            "type": "string"
                        },
                        {
                            "internalType": "string",
                            "name": "message",
                            "type": "string"
                        },
                        {
                            "internalType": "uint256",
                            "name": "timestamp",
                            "type": "uint256"
                        },
                        {
                            "internalType": "address",
                            "name": "funderAddress",
                            "type": "address"
                        }
                    ],
                    "internalType": "struct BuyMeACoffee.FunderInfo[]",
                    "name": "",
                    "type": "tuple[]"
                }
            ],
            "stateMutability": "view",
            "type": "function"
        }
    ],
    "bytecode": "0x608060405234801561001057600080fd5b5033600160006101000a81548173ffffffffffffffffffffffffffffffffffffffff021916908373ffffffffffffffffffffffffffffffffffffffff160217905550610d97806100616000396000f3fe6080604052600436106100295760003560e01c8063204206e11461002e578063ea63a0441461004a575b600080fd5b61004860048036038101906100439190610680565b610075565b005b34801561005657600080fd5b5061005f610281565b60405161006c91906108fd565b60405180910390f35b600034116100b8576040517f08c379a00000000000000000000000000000000000000000000000000000000081526004016100af9061097c565b60405180910390fd5b600160009054906101000a900473ffffffffffffffffffffffffffffffffffffffff1673ffffffffffffffffffffffffffffffffffffffff166108fc349081150290604051600060405180830381858888f19350505050158015610120573d6000803e3d6000fd5b50600060405180608001604052808481526020018381526020014281526020013373ffffffffffffffffffffffffffffffffffffffff16815250905061019a6040518060400160405280601881526020017f5448452046554e444552204f424a4543542d2d2d2d2d2d3e0000000000000000815250610464565b7ffe8a2af8c699a38ba5eaeb2f4766990ef6a1fd4a3710aedb26efdfcccd4b398a816040516101c99190610a06565b60405180910390a1600081908060018154018082558091505060019003906000526020600020906004020160009091909190915060008201518160000190816102129190610c34565b5060208201518160010190816102289190610c34565b506040820151816002015560608201518160030160006101000a81548173ffffffffffffffffffffffffffffffffffffffff021916908373ffffffffffffffffffffffffffffffffffffffff1602179055505050505050565b60606000805480602002602001604051908101604052809291908181526020016000905b8282101561045b57838290600052602060002090600402016040518060800160405290816000820180546102d890610a57565b80601f016020809104026020016040519081016040528092919081815260200182805461030490610a57565b80156103515780601f1061032657610100808354040283529160200191610351565b820191906000526020600020905b81548152906001019060200180831161033457829003601f168201915b5050505050815260200160018201805461036a90610a57565b80601f016020809104026020016040519081016040528092919081815260200182805461039690610a57565b80156103e35780601f106103b8576101008083540402835291602001916103e3565b820191906000526020600020905b8154815290600101906020018083116103c657829003601f168201915b50505050508152602001600282015481526020016003820160009054906101000a900473ffffffffffffffffffffffffffffffffffffffff1673ffffffffffffffffffffffffffffffffffffffff1673ffffffffffffffffffffffffffffffffffffffff1681525050815260200190600101906102a5565b50505050905090565b6104fa816040516024016104789190610d3f565b6040516020818303038152906040527f41304fac000000000000000000000000000000000000000000000000000000007bffffffffffffffffffffffffffffffffffffffffffffffffffffffff19166020820180517bffffffffffffffffffffffffffffffffffffffffffffffffffffffff83818316178352505050506104fd565b50565b60008151905060006a636f6e736f6c652e6c6f679050602083016000808483855afa5050505050565b6000604051905090565b600080fd5b600080fd5b600080fd5b600080fd5b6000601f19601f8301169050919050565b7f4e487b7100000000000000000000000000000000000000000000000000000000600052604160045260246000fd5b61058d82610544565b810181811067ffffffffffffffff821117156105ac576105ab610555565b5b80604052505050565b60006105bf610526565b90506105cb8282610584565b919050565b600067ffffffffffffffff8211156105eb576105ea610555565b5b6105f482610544565b9050602081019050919050565b82818337600083830152505050565b600061062361061e846105d0565b6105b5565b90508281526020810184848401111561063f5761063e61053f565b5b61064a848285610601565b509392505050565b600082601f8301126106675761066661053a565b5b8135610677848260208601610610565b91505092915050565b6000806040838503121561069757610696610530565b5b600083013567ffffffffffffffff8111156106b5576106b4610535565b5b6106c185828601610652565b925050602083013567ffffffffffffffff8111156106e2576106e1610535565b5b6106ee85828601610652565b9150509250929050565b600081519050919050565b600082825260208201905092915050565b6000819050602082019050919050565b600081519050919050565b600082825260208201905092915050565b60005b8381101561075e578082015181840152602081019050610743565b60008484015250505050565b600061077582610724565b61077f818561072f565b935061078f818560208601610740565b61079881610544565b840191505092915050565b6000819050919050565b6107b6816107a3565b82525050565b600073ffffffffffffffffffffffffffffffffffffffff82169050919050565b60006107e7826107bc565b9050919050565b6107f7816107dc565b82525050565b6000608083016000830151848203600086015261081a828261076a565b91505060208301518482036020860152610834828261076a565b915050604083015161084960408601826107ad565b50606083015161085c60608601826107ee565b508091505092915050565b600061087383836107fd565b905092915050565b6000602082019050919050565b6000610893826106f8565b61089d8185610703565b9350836020820285016108af85610714565b8060005b858110156108eb57848403895281516108cc8582610867565b94506108d78361087b565b925060208a019950506001810190506108b3565b50829750879550505050505092915050565b600060208201905081810360008301526109178184610888565b905092915050565b600082825260208201905092915050565b7f4e6f7420656e6f7567682076616c75652073656e740000000000000000000000600082015250565b600061096660158361091f565b915061097182610930565b602082019050919050565b6000602082019050818103600083015261099581610959565b9050919050565b600060808301600083015184820360008601526109b9828261076a565b915050602083015184820360208601526109d3828261076a565b91505060408301516109e860408601826107ad565b5060608301516109fb60608601826107ee565b508091505092915050565b60006020820190508181036000830152610a20818461099c565b905092915050565b7f4e487b7100000000000000000000000000000000000000000000000000000000600052602260045260246000fd5b60006002820490506001821680610a6f57607f821691505b602082108103610a8257610a81610a28565b5b50919050565b60008190508160005260206000209050919050565b60006020601f8301049050919050565b600082821b905092915050565b600060088302610aea7fffffffffffffffffffffffffffffffffffffffffffffffffffffffffffffffff82610aad565b610af48683610aad565b95508019841693508086168417925050509392505050565b6000819050919050565b6000610b31610b2c610b27846107a3565b610b0c565b6107a3565b9050919050565b6000819050919050565b610b4b83610b16565b610b5f610b5782610b38565b848454610aba565b825550505050565b600090565b610b74610b67565b610b7f818484610b42565b505050565b5b81811015610ba357610b98600082610b6c565b600181019050610b85565b5050565b601f821115610be857610bb981610a88565b610bc284610a9d565b81016020851015610bd1578190505b610be5610bdd85610a9d565b830182610b84565b50505b505050565b600082821c905092915050565b6000610c0b60001984600802610bed565b1980831691505092915050565b6000610c248383610bfa565b9150826002028217905092915050565b610c3d82610724565b67ffffffffffffffff811115610c5657610c55610555565b5b610c608254610a57565b610c6b828285610ba7565b600060209050601f831160018114610c9e5760008415610c8c578287015190505b610c968582610c18565b865550610cfe565b601f198416610cac86610a88565b60005b82811015610cd457848901518255600182019150602085019450602081019050610caf565b86831015610cf15784890151610ced601f891682610bfa565b8355505b6001600288020188555050505b505050505050565b6000610d1182610724565b610d1b818561091f565b9350610d2b818560208601610740565b610d3481610544565b840191505092915050565b60006020820190508181036000830152610d598184610d06565b90509291505056fea264697066735822122018f175a667ae8e6747fd0bcc209b0f683edaa4ff77ce372e75f1cad3b3f7d5bb64736f6c63430008110033",
    "linkReferences": {},
    "deployedLinkReferences": {}
}